:100000000C942A000C9447000C9447000C94470071
:100010000C9447000C9447000C9447000C94470044
:100020000C9447000C9447000C9447000C94470034
:100030000C9447000C9447000C9447000C94470024
:100040000C9447000C9447000C9447000C94470014
:100050000C94470011241FBECFE5D4E0DEBFCDBF16
:1000600010E0A0E6B0E0EEEBF0E002C005900D92EB
:10007000A036B107D9F710E0A0E6B0E001C01D92AC
:10008000A036B107E1F70E9449000C945D000C9482
:1000900000008FEF84BB83E389B9549A80B58668EA
:1000A00080BD5F9BFECF8CB185BBFBCF83E389B95D
:0E00B000549A80B5866880BD0895F894FFCFFD
:00000001FF
