:100000000C942A000C9447000C9447000C94470071
:100010000C9447000C9447000C9447000C94470044
:100020000C9447000C9447000C9447000C94470034
:100030000C9447000C9447000C9447000C94470024
:100040000C9447000C9447000C9447000C94470014
:100050000C94470011241FBECFE5D4E0DEBFCDBF16
:1000600011E0A0E6B0E0E2E1F2E002C005900D92FE
:10007000A433B107D9F711E0A4E3B1E001C01D92A8
:10008000A433B107E1F70E94FA000C9407010C9425
:10009000000083E389B9539A80B5866880BD0895CE
:1000A000FC0120ED37E007C08CB95D9BFECF319697
:1000B000C9010197F1F780818823B1F7089588E09D
:1000C00080B986B7846E86BF06B607FEFDCF81B1C4
:1000D000887F883029F0E0E6F0E020ED37E017C0B7
:1000E000EBE7F0E020ED37E007C08CB95D9BFECF79
:1000F0003196C9010197F1F780818823B1F70895FE
:100100008CB95D9BFECF3196C9010197F1F78081D3
:100110008823B1F7089580E483B986B7846C86BFDD
:1001200006B607FEFDCF81B1887F883129F0E3EA6A
:10013000F0E020ED37E017C0E5EBF0E020ED37E030
:1001400007C08CB95D9BFECF3196C9010197F1F7CD
:1001500080818823B1F708958CB95D9BFECF3196DD
:10016000C9010197F1F780818823B1F7089520E054
:1001700030E0A1E0B0E040ED57E068EC70E0CD0188
:10018000022E02C0880F991F0A94E2F783B986B73E
:10019000846C86BF06B607FEFDCF81B1887F8832AA
:1001A00019F0E7EEF0E015C0EEEFF0E007C08CB913
:1001B0005D9BFECF3196CA010197F1F780818823BC
:1001C000B1F70AC08CB95D9BFECF3196CA01019789
:1001D000F1F780818823B1F788EE93E0FB01319736
:1001E000F1F70197D9F72F5F3F4F2830310509F01C
:1001F000C6CF089583E389B9539A80B5866880BDD8
:100200000E945F000E948B000E94B700FDCFF8940F
:02021000FFCF1E
:100212004572726F7220696E2053544152542063AA
:100222006F6E646974696F6E200D004120535441F2
:10023200525420636F6E646974696F6E20686173D3
:10024200206265656E207472616E736D6974746587
:10025200640D004572726F7220696E20534C412BFF
:100262005720200D00534C412B57206861732062A8
:1002720065656E207472616E736D69747465642C49
:1002820041434B20686173206265656E207265632D
:1002920065697665640D004572726F72206974201B
:1002A200446174612077726974696E670D004461FC
:1002B2007461206279746520686173206265656E7D
:1002C200207472616E736D69747465642C41434B62
:1002D20020686173206265656E2072656365697668
:0402E20065640D0042
:00000001FF
