:100000000C942A000C943F000C943F000C943F0089
:100010000C943F000C943F000C943F000C943F0064
:100020000C943F000C943F000C943F000C943F0054
:100030000C943F000C943F000C943F000C943F0044
:100040000C943F000C943F000C943F000C943F0034
:100050000C943F0011241FBECFE5D4E0DEBFCDBF1E
:1000600011E0A0E6B0E0E4EDF2E002C005900D92F0
:10007000A237B107D9F70E945E010C9468010C9475
:100080000000282F207F22BB90989198929A40EDF3
:1000900057E0FA013197F1F7929820E137E2F90140
:1000A0003197F1F790E064E0880F991F6A95E1F7C6
:1000B00082BB90989198929ACA010197F1F7929811
:1000C000C9010197F1F708958FEF81BB82E00E948B
:1000D000410088E20E9441008EE00E9441000895A4
:1000E00090989198929A80ED97E00197F1F7929805
:1000F00080E197E20197F1F70895282F207F22BB36
:10010000909A9198929A40ED57E0FA013197F1F761
:10011000929820E137E2F9013197F1F790E074E02D
:10012000880F991F7A95E1F782BB909A9198929ADD
:10013000CA010197F1F79298C9010197F1F7089563
:100140000F931F93CF93DF93EC0108EC10E00AC0EC
:100150000E947D0088EE93E0F8013197F1F7019756
:10016000D9F721968881882399F7DF91CF911F9144
:100170000F910895909A9198929A80ED97E0019747
:10018000F1F7929880E197E20197F1F70895C4980A
:1001900088B3806E88BBB09906C081E00E944100A0
:1001A00080E690E017C0B19906C081E00E9441004E
:1001B00081E790E00FC0B29906C081E00E94410043
:1001C00082E890E007C0B39907C081E00E94410037
:1001D00083E990E00E94A000C59888B3806D88BB39
:1001E000B09906C081E00E94410085EA90E017C006
:1001F000B19906C081E00E94410086EB90E00FC0FB
:10020000B29906C081E00E94410087EC90E007C0EF
:10021000B39907C081E00E94410088ED90E00E9400
:10022000A000C69888B3806B88BBB09906C081E0F7
:100230000E94410089EE90E017C0B19906C081E0AC
:100240000E9441008AEF90E00FC0B29906C081E0A1
:100250000E9441008BE091E007C0B39907C081E0A4
:100260000E9441008CE191E00E94A000C79888B3F1
:10027000806788BBB09906C081E00E9441008DE292
:1002800091E00FC0B19906C081E00E9441008EE369
:1002900091E007C0B29908C081E00E9441008FE45C
:1002A00091E00E94A0000895B39907C081E00E94E8
:1002B000410080E691E00E94A000089580EF87BB96
:1002C00088B38F6088BB0E9464000E94C700FDCF86
:0402D000F894FFCFD0
:1002D4006B65792037206973207072657373656468
:1002E400006B6579203420697320707265737365BF
:1002F40064006B65792031206973207072657373B3
:100304006564006B6579204F4E20697320707265B7
:1003140073736564006B657920382069732070728B
:100324006573736564006B6579203520697320708B
:10033400726573736564006B65792032206973207C
:1003440070726573736564006B657920302069731E
:100354002070726573736564006B65792039206958
:10036400732070726573736564006B657920362041
:1003740069732070726573736564006B65792033EB
:100384002069732070726573736564006B657920EE
:100394003D2069732070726573736564006B6579C1
:1003A400202F2069732070726573736564006B6518
:1003B40079202A2069732070726573736564006BF9
:1003C4006579202D206973207072657373656400EC
:1003D4006B6579202B206973207072657373656473
:0203E400000017
:00000001FF
