:100000000C942A000C9434000C9434000C943400AA
:100010000C9434000C9434000C9434000C94340090
:100020000C9434000C9434000C9434000C94340080
:100030000C9434000C9434000C9434000C94340070
:100040000C9434000C9434000C9434000C94340060
:100050000C94340011241FBECFE5D4E0DEBFCDBF29
:100060000E9436000C9455000C940000D09A95E044
:10007000D89A12BE93BF08B600FEFDCF88B7816044
:1000800088BFD89812BE93BF08B600FEFDCF88B7D0
:10009000816088BFEDCF12BE85E083BF08B600FE49
:0E00A000FDCF88B7816088BF0895F894FFCF28
:00000001FF
