:100000000C942A000C9449000C9447000C9447006F
:100010000C9447000C9447000C9447000C94470044
:100020000C9447000C9447000C9447000C94470034
:100030000C9447000C9447000C9447000C94470024
:100040000C9447000C9447000C9447000C94470014
:100050000C94470011241FBECFE5D4E0DEBFCDBF16
:1000600010E0A0E6B0E0E8EFF1E002C005900D92EC
:10007000A037B107D9F710E0A0E7B0E001C01D92AA
:10008000A237B107E1F70E94E5000C94FA000C9446
:1000900000001F920F920FB60F9211242F933F93DF
:1000A0004F935F938F939F93EF93FF9320E030E004
:1000B00048EC50E012C0C09A80E197E2FA01319713
:1000C000F1F70197D9F7C09880E197E2FA013197EB
:1000D000F1F70197D9F72F5F3F4F233031055CF3DC
:1000E0003093710020937000FF91EF919F918F9159
:1000F0005F914F913F912F910F900FBE0F901F90E6
:1001000018958BB780648BBF85B7816085BF789465
:100110000895282F207F2BBBD898D998DA9ADA989F
:1001200020ED37E0F9013197F1F790E044E0880FD6
:10013000991F4A95E1F78BBBD898D998DA9ADA9843
:10014000C9010197F1F708958FEF8ABB82E00E9401
:10015000890088E20E9489008EE00E94890008954B
:10016000282F207F2BBBD89AD998DA9ADA9820EDDD
:1001700037E0F9013197F1F790E054E0880F991FCB
:100180005A95E1F78BBBD89AD998DA9ADA98C901CF
:100190000197F1F708950F931F93CF93DF93EC012D
:1001A00008EC10E00AC00E94B00088EE93E0F8016D
:1001B0003197F1F70197D9F721968881882399F72C
:1001C000DF91CF911F910F910895B89A8A988FEF80
:1001D0008ABB8BB780648BBF85B7816085BF7894FD
:1001E0000E94A40081E00E94890080E690E00E94C5
:0801F000CB00F8CFF894FFCF1B
:1001F80057656C636F6D6520746F2048656C6C0083
:00000001FF
