:100000000C942A000C9434000C9434000C943400AA
:100010000C9434000C9434000C9434000C94340090
:100020000C9434000C9434000C9434000C94340080
:100030000C9434000C9434000C9434000C94340070
:100040000C9434000C9434000C9434000C94340060
:100050000C94340011241FBECFE5D4E0DEBFCDBF29
:100060000E9466000C9470000C94000087B3806BB3
:1000700087BBBE988DB180678DB9089581E48FB933
:10008000779BFECF80E29EE428EC30E0F9013197C7
:10009000F1F70197D9F782E48FB9779BFECF80E221
:1000A0009EE428EC30E0F9013197F1F70197D9F798
:1000B00083E48FB9779BFECF80E29EE428EC30E0AA
:1000C000F9013197F1F70197D9F7089587B3806B5C
:1000D00087BBBE988DB180678DB90E943E00FDCF71
:0400E000F894FFCFC2
:00000001FF
