:100000000C942A000C943F000C943F000C943F0089
:100010000C943F000C943F000C943F000C943F0064
:100020000C943F000C943F000C943F000C943F0054
:100030000C943F000C943F000C943F000C943F0044
:100040000C943F000C943F000C943F000C943F0034
:100050000C943F0011241FBECFE5D4E0DEBFCDBF1E
:1000600010E0A0E6B0E0E4EDF0E002C005900D92F3
:10007000A038B107D9F70E9441000C9468000C9495
:10008000000083E389B9539A80B5866880BDE0E6B5
:10009000F0E004C08CB95D9BFECF3196808188234F
:1000A000C9F7ECE6F0E004C08CB95D9BFECF319659
:1000B00080818823C9F780E090E00895FC0104C0A6
:1000C0008CB95D9BFECF319680818823C9F7089556
:0400D000F894FFCFD2
:1000D400474F44204953204F4E450D00425554206C
:1000E40057484F2042454C49455645533F0D000063
:00000001FF
