:100000000C942A000C943F000C943F000C943F0089
:100010000C943F000C943F000C943F000C943F0064
:100020000C943F000C943F000C943F000C943F0054
:100030000C943F000C943F000C943F000C943F0044
:100040000C943F000C943F000C943F000C943F0034
:100050000C943F0011241FBECFE5D4E0DEBFCDBF1E
:1000600010E0A0E6B0E0EAE4F1E002C005900D92F5
:10007000A23AB107D9F70E9441000C94A3000C9456
:10008000000083E389B9539A80B5866880BDA0E6F5
:10009000B0E028EC30E00BC08CB95D9BFECF88EE61
:1000A00093E0F9013197F1F70197D9F711968C9107
:1000B000882391F7ACE6B0E00BC08CB95D9BFECF16
:1000C00088EE93E0F9013197F1F70197D9F711968E
:1000D0008C91882391F7AFE7B0E00BC08CB95D9BA2
:1000E000FECF88EE93E0F9013197F1F70197D9F748
:1000F00011968C91882391F7A2E9B0E00BC08CB9DE
:100100005D9BFECF88EE93E0F9013197F1F70197FF
:10011000D9F711968C91882391F7A0E6B0E0C7CF6C
:10012000DC0128EC30E00BC08CB95D9BFECF88EE83
:1001300093E0F9013197F1F70197D9F711968C9176
:0A014000882391F70895F894FFCF8B
:10014A00474F44204953204F4E450D0042555420F5
:10015A0057484F2042454C49455645533F0D004F9D
:10016A0048484820474F44444444444421212121DB
:10017A000D004E4F204F4E45212121212121210DD5
:02018A00000073
:00000001FF
