:100000000C942A000C9434000C9434000C943400AA
:100010000C9434000C9434000C9434000C94340090
:100020000C9434000C9434000C9434000C94340080
:100030000C9434000C9434000C9434000C94340070
:100040000C9434000C9434000C9434000C94340060
:100050000C94340011241FBECFE5D4E0DEBFCDBF29
:100060000E9436000C944D000C9400008FEF8ABB68
:10007000BE9A8DB180668DB9779BFECF8FB18BBB59
:10008000FBCF8FEF8ABBBE9A8DB180668DB9089584
:0E009000779BFECF8FB18BBB0895F894FFCF06
:00000001FF
