:100000000C942A000C9447000C9447000C94470071
:100010000C9447000C9447000C9447000C94470044
:100020000C9447000C9447000C9447000C94470034
:100030000C9447000C9447000C9447000C94470024
:100040000C9447000C9447000C9447000C94470014
:100050000C94470011241FBECFE5D4E0DEBFCDBF16
:1000600010E0A0E6B0E0E2EDF1E002C005900D92F4
:10007000A036B107D9F710E0A0E6B0E001C01D92AC
:10008000A036B107E1F70E94B4000C94E7000C948D
:10009000000086E083BF12BE0895282F207F22BB78
:1000A00090989198929A92982AEF30E0F9013197BE
:1000B000F1F790E044E0880F991F4A95E1F782BB81
:1000C00090989198929A9298C9010197F1F70895A2
:1000D0008FEF81BB82E00E944D0088E20E944D00BC
:1000E0008EE00E944D000895282F207F22BB909A19
:1000F0009198929A92982AEF30E0F9013197F1F7AE
:1001000090E054E0880F991F5A95E1F782BB909ACE
:100110009198929A9298C9010197F1F70895EF92F8
:10012000FF920F931F93F82E092F12E88F2D902F17
:100130006AE070E00E94C000E82E8F2D902F6AE0E8
:1001400070E00E94C000F62E072F812F0E944D0004
:100150008E2D805D0E94740011501F3739F71F915A
:100160000F91FF90EF900895B89A0E94680086E082
:1001700083BF12BE82B790E00E948F0088B7FACF8B
:1001800097FB092E07260AD077FD04D00CD006D0A5
:1001900000201AF4709561957F4F0895F6F79095B9
:1001A00081959F4F0895AA1BBB1B51E107C0AA1F51
:1001B000BB1FA617B70710F0A61BB70B881F991F08
:1001C0005A95A9F780959095BC01CD010895F894B2
:0201D000FFCF5F
:00000001FF
