:100000000C942A000C9441000C9474000C943F0052
:100010000C943F000C943F000C943F000C943F0064
:100020000C943F000C943F000C943F000C943F0054
:100030000C943F000C943F000C943F000C943F0044
:100040000C943F000C943F000C94A7000C943F00CC
:100050000C943F0011241FBECFE5D4E0DEBFCDBF1E
:1000600010E0A0E6B0E0E2ECF2E002C005900D92F4
:10007000A037B107D9F70E9441010C945F010C949D
:1000800000001F920F920FB60F9211242F933F93EF
:100090004F935F938F939F93EF93FF9320E030E014
:1000A00048EC50E0C09A80E197E2FA013197F1F70D
:1000B0000197D9F7C09880E197E2FA013197F1F7FB
:1000C0000197D9F72F5F3F4F2330310559F7FF9143
:1000D000EF919F918F915F914F913F912F910F9051
:1000E0000FBE0F901F9018951F920F920FB60F9290
:1000F00011242F933F934F935F938F939F93EF938D
:10010000FF9320E030E048EC50E0A89A80E197E2CD
:10011000FA013197F1F70197D9F7A89880E197E2B2
:10012000FA013197F1F70197D9F72F5F3F4F23304D
:10013000310559F7FF91EF919F918F915F914F9109
:100140003F912F910F900FBE0F901F9018951F9207
:100150000F920FB60F9211242F933F934F935F93FB
:100160008F939F93EF93FF9320E030E048EC50E0B3
:10017000AF9A80E197E2FA013197F1F70197D9F749
:10018000AF9880E197E2FA013197F1F70197D9F73B
:100190002F5F3F4F2330310559F7FF91EF919F912A
:1001A0008F915F914F913F912F910F900FBE0F90C4
:1001B0001F9018958BB7806E8BBF85B78A6085BFFF
:1001C00084B78F7B84BF78940895282F207F2BBB22
:1001D000D898D998DA9ADA9820ED37E0F901319772
:1001E000F1F790E044E0880F991F4A95E1F78BBB47
:1001F000D898D998DA9ADA98C9010197F1F7089551
:100200008FEF8ABB82E00E94E50088E20E94E50051
:100210008EE00E94E5000895282F207F2BBBD89AFE
:10022000D998DA9ADA9820ED37E0F9013197F1F7A9
:1002300090E054E0880F991F5A95E1F78BBBD89A4C
:10024000D998DA9ADA98C9010197F1F708950F93CE
:100250001F93CF93DF93EC0108EC10E00AC00E94DB
:100260000C0188EE93E0F8013197F1F70197D9F787
:1002700021968881882399F7DF91CF911F910F9163
:100280000895B89ABA9884B3816884BB81B3837F98
:1002900081BB8FEF8ABB8BB7806E8BBF85B78A60BF
:1002A00085BF84B78F7B84BF78940E94000181E072
:1002B0000E94E50080E690E00E942701F8CFF894C4
:0202C000FFCF6E
:1002C20057656C636F6D6520746F2048656C6C00B8
:00000001FF
