:1000000012C02CC02BC02AC029C028C027C026C0BF
:1000100025C024C023C022C021C020C01FC01EC0D4
:100020001DC01CC01BC011241FBECFE5D4E0DEBF25
:10003000CDBF10E0A0E6B0E0E0E9F1E002C005903D
:100040000D92A036B107D9F710E0A0E6B0E001C0EC
:100050001D92A036B107E1F760D098C0D1CF282F0C
:10006000207F28BBC098C198C29AC29820ED37E083
:10007000F9013197F1F790E044E0880F991F4A9514
:10008000E1F788BBC098C198C29AC298C90101978C
:10009000F1F7089582E0E3DF88E2E1DF8EE0DFDF61
:1000A0000895282F207F28BBC09AC198C29AC29871
:1000B00020ED37E0F9013197F1F790E054E0880F37
:1000C000991F5A95E1F788BBC09AC198C29AC29805
:1000D000C9010197F1F70895EF92FF920F931F93D3
:1000E000F82E092F15E88F2D902F6AE070E027D0A9
:1000F000E82E8F2D902F6AE070E021D0F62E072F8A
:10010000812FADDF8E2D805DCCDF1150123859F775
:100110001F910F91FF90EF90089587EF87BBBADF93
:1001200080EC87B987EA86B9369A349BFECF84B1D2
:1001300095B19695879596958795CEDFF5CF97FBE8
:10014000092E07260AD077FD04D00CD006D0002057
:100150001AF4709561957F4F0895F6F79095819503
:100160009F4F0895AA1BBB1B51E107C0AA1FBB1FCD
:10017000A617B70710F0A61BB70B881F991F5A9533
:10018000A9F780959095BC01CD010895F894FFCF13
:00000001FF
