:100000000C942A000C9434000C9434000C943400AA
:100010000C9434000C9434000C9434000C94340090
:100020000C9434000C9434000C9434000C94340080
:100030000C9434000C9434000C9434000C94340070
:100040000C9434000C9434000C9434000C94340060
:100050000C94340011241FBECFE5D4E0DEBFCDBF29
:100060000E947D000C948D000C94000083E389B9FC
:10007000549A80B5866880BD0895282F207F2BBBB9
:10008000D89AD998DA9ADA9820ED37E0F9013197C1
:10009000F1F790E044E0880F991F4A95E1F78BBB98
:1000A000D89AD998DA9ADA98C9010197F1F70895A0
:1000B000282F207F2BBBD898D998DA9ADA9820ED90
:1000C00037E0F9013197F1F790E054E0880F991F7C
:1000D0005A95E1F78BBBD898D998DA9ADA98C90182
:1000E0000197F1F7089582E00E94580088E20E948B
:1000F00058008EE00E94580008958FEF8ABB83E37A
:1001000089B9549A80B5866880BD0E9473005F9B50
:0E011000FECF8CB10E943D00FACFF894FFCFD5
:00000001FF
