:100000000C942A000C9447000C9447000C94470071
:100010000C9447000C9447000C9447000C94470044
:100020000C9447000C9447000C9447000C94470034
:100030000C9447000C9447000C9447000C94470024
:100040000C9447000C9447000C9447000C94470014
:100050000C94470011241FBECFE5D4E0DEBFCDBF16
:1000600010E0A0E6B0E0E2E6F1E002C005900D92FB
:10007000A036B107D9F710E0A0E6B0E001C01D92AC
:10008000A236B107E1F70E9490000C94AF000C94E7
:10009000000083E389B9549A80B5866880BD0895CD
:1000A000282F207F2BBBD89AD998DA9ADA9820ED9E
:1000B00037E0F9013197F1F790E044E0880F991F9C
:1000C0004A95E1F78BBBD89AD998DA9ADA98C901A0
:1000D0000197F1F70895282F207F2BBBD898D99846
:1000E000DA9ADA9820ED37E0F9013197F1F790E0EC
:1000F00054E0880F991F5A95E1F78BBBD898D9988F
:10010000DA9ADA98C9010197F1F7089582E00E941E
:100110006B0088E20E946B008EE00E946B000895E5
:100120008FEF8ABB83E389B9549A80B5866880BD16
:100130000E9486005F9BFECF8CB10E945000809190
:10014000600090916100019690936100809360003F
:10015000419784F31092610010926000E9CFF89407
:02016000FFCFCF
:00000001FF
