:100000000C942A000C9434000C9434000C943400AA
:100010000C9434000C9434000C9434000C94340090
:100020000C9434000C9434000C9434000C94340080
:100030000C9434000C9434000C9434000C94340070
:100040000C9434000C9434000C9434000C94340060
:100050000C94340011241FBECFE5D4E0DEBFCDBF29
:100060000E9436000C9447000C94000083E389B989
:10007000539A80B5866880BD81E48CB95D9BFECFC4
:1000800082E48CB95D9BFECF80E090E00895F89407
:02009000FFCFA0
:00000001FF
