:100000000C942A000C9447000C9447000C94470071
:100010000C9447000C9447000C9447000C94470044
:100020000C9447000C9447000C9447000C94470034
:100030000C9447000C9447000C9447000C94470024
:100040000C9447000C9447000C9447000C94470014
:100050000C94470011241FBECFE5D4E0DEBFCDBF16
:1000600010E0A0E6B0E0EEEDF0E002C005900D92E9
:10007000AC39B107D9F710E0ACE9B0E001C01D928E
:10008000AE39B107E1F70E9449000C946D000C9461
:10009000000083E389B9539A80B5866880BDE0E6A5
:1000A000F0E004C08CB95D9BFECF3196808188233F
:1000B000C9F7E1E8F0E080E090E005C02CB95D9B75
:1000C000FECF0196319620812223C1F780939C00B8
:0E00D00090939D0080E090E00895F894FFCF9B
:1000DE00445543415420494E4449412050565420E2
:1000EE004C544420424548494E44204D4143440D12
:1000FE0000454D4245444445442053595354454DC3
:0C010E005320545241494E49474E0D0009
:00000001FF
